{
  "contractName": "YieldFarmer",
  "abi": [
    {
      "inputs": [
        {
          "internalType": "address",
          "name": "comptrollerAddress",
          "type": "address"
        },
        {
          "internalType": "address",
          "name": "cDaiAddress",
          "type": "address"
        },
        {
          "internalType": "address",
          "name": "daiAddress",
          "type": "address"
        }
      ],
      "stateMutability": "nonpayable",
      "type": "constructor"
    },
    {
      "inputs": [],
      "name": "cDai",
      "outputs": [
        {
          "internalType": "contract JCoinInterface",
          "name": "",
          "type": "address"
        }
      ],
      "stateMutability": "view",
      "type": "function"
    },
    {
      "inputs": [],
      "name": "comptroller",
      "outputs": [
        {
          "internalType": "contract ComptrollerInterface",
          "name": "",
          "type": "address"
        }
      ],
      "stateMutability": "view",
      "type": "function"
    },
    {
      "inputs": [],
      "name": "dai",
      "outputs": [
        {
          "internalType": "contract IERC20",
          "name": "",
          "type": "address"
        }
      ],
      "stateMutability": "view",
      "type": "function"
    },
    {
      "inputs": [
        {
          "internalType": "uint256",
          "name": "initialAmount",
          "type": "uint256"
        }
      ],
      "name": "openPosition",
      "outputs": [],
      "stateMutability": "nonpayable",
      "type": "function"
    },
    {
      "inputs": [],
      "name": "closePosition",
      "outputs": [],
      "stateMutability": "nonpayable",
      "type": "function"
    }
  ],
  "bytecode": "0x6080604052604660035534801561001557600080fd5b50604051610bad380380610bad8339818101604052606081101561003857600080fd5b81019080805190602001909291908051906020019092919080519060200190929190505050826000806101000a81548173ffffffffffffffffffffffffffffffffffffffff021916908373ffffffffffffffffffffffffffffffffffffffff16021790555081600160006101000a81548173ffffffffffffffffffffffffffffffffffffffff021916908373ffffffffffffffffffffffffffffffffffffffff16021790555080600260006101000a81548173ffffffffffffffffffffffffffffffffffffffff021916908373ffffffffffffffffffffffffffffffffffffffff1602179055506060600167ffffffffffffffff8111801561013957600080fd5b506040519080825280602002602001820160405280156101685781602001602082028036833780820191505090505b509050828160008151811061017957fe5b602002602001019073ffffffffffffffffffffffffffffffffffffffff16908173ffffffffffffffffffffffffffffffffffffffff168152505060008054906101000a900473ffffffffffffffffffffffffffffffffffffffff1673ffffffffffffffffffffffffffffffffffffffff1663c2998238826040518263ffffffff1660e01b81526004018080602001828103825283818151815260200191508051906020019060200280838360005b83811015610242578082015181840152602081019050610227565b5050505090500192505050600060405180830381600087803b15801561026757600080fd5b505af115801561027b573d6000803e3d6000fd5b505050506040513d6000823e3d601f19601f8201168201806040525060208110156102a557600080fd5b81019080805160405193929190846401000000008211156102c557600080fd5b838201915060208201858111156102db57600080fd5b82518660208202830111640100000000821117156102f857600080fd5b8083526020830192505050908051906020019060200280838360005b8381101561032f578082015181840152602081019050610314565b50505050905001604052505050505050505061085d806103506000396000f3fe608060405234801561001057600080fd5b50600436106100575760003560e01c80635fe3b5671461005c57806399ff8203146100905780639b089d55146100be578063c393d0e3146100f2578063f4b9fa75146100fc575b600080fd5b610064610130565b604051808273ffffffffffffffffffffffffffffffffffffffff16815260200191505060405180910390f35b6100bc600480360360208110156100a657600080fd5b8101908080359060200190929190505050610154565b005b6100c6610182565b604051808273ffffffffffffffffffffffffffffffffffffffff16815260200191505060405180910390f35b6100fa6101a8565b005b610104610591565b604051808273ffffffffffffffffffffffffffffffffffffffff16815260200191505060405180910390f35b60008054906101000a900473ffffffffffffffffffffffffffffffffffffffff1681565b600081905060005b600581101561017d5761016e826105b7565b9150808060010191505061015c565b505050565b600160009054906101000a900473ffffffffffffffffffffffffffffffffffffffff1681565b6000600160009054906101000a900473ffffffffffffffffffffffffffffffffffffffff1673ffffffffffffffffffffffffffffffffffffffff166317bfdfbc306040518263ffffffff1660e01b8152600401808273ffffffffffffffffffffffffffffffffffffffff168152602001915050602060405180830381600087803b15801561023557600080fd5b505af1158015610249573d6000803e3d6000fd5b505050506040513d602081101561025f57600080fd5b81019080805190602001909291905050509050600260009054906101000a900473ffffffffffffffffffffffffffffffffffffffff1673ffffffffffffffffffffffffffffffffffffffff1663095ea7b3600160009054906101000a900473ffffffffffffffffffffffffffffffffffffffff16836040518363ffffffff1660e01b8152600401808373ffffffffffffffffffffffffffffffffffffffff16815260200182815260200192505050602060405180830381600087803b15801561032757600080fd5b505af115801561033b573d6000803e3d6000fd5b505050506040513d602081101561035157600080fd5b810190808051906020019092919050505050600160009054906101000a900473ffffffffffffffffffffffffffffffffffffffff1673ffffffffffffffffffffffffffffffffffffffff16630e752702826040518263ffffffff1660e01b815260040180828152602001915050602060405180830381600087803b1580156103d857600080fd5b505af11580156103ec573d6000803e3d6000fd5b505050506040513d602081101561040257600080fd5b8101908080519060200190929190505050506000600160009054906101000a900473ffffffffffffffffffffffffffffffffffffffff1673ffffffffffffffffffffffffffffffffffffffff166370a08231306040518263ffffffff1660e01b8152600401808273ffffffffffffffffffffffffffffffffffffffff16815260200191505060206040518083038186803b15801561049f57600080fd5b505afa1580156104b3573d6000803e3d6000fd5b505050506040513d60208110156104c957600080fd5b81019080805190602001909291905050509050600160009054906101000a900473ffffffffffffffffffffffffffffffffffffffff1673ffffffffffffffffffffffffffffffffffffffff1663db006a75826040518263ffffffff1660e01b815260040180828152602001915050602060405180830381600087803b15801561055157600080fd5b505af1158015610565573d6000803e3d6000fd5b505050506040513d602081101561057b57600080fd5b8101908080519060200190929190505050505050565b600260009054906101000a900473ffffffffffffffffffffffffffffffffffffffff1681565b6000600260009054906101000a900473ffffffffffffffffffffffffffffffffffffffff1673ffffffffffffffffffffffffffffffffffffffff1663095ea7b3600160009054906101000a900473ffffffffffffffffffffffffffffffffffffffff16846040518363ffffffff1660e01b8152600401808373ffffffffffffffffffffffffffffffffffffffff16815260200182815260200192505050602060405180830381600087803b15801561066e57600080fd5b505af1158015610682573d6000803e3d6000fd5b505050506040513d602081101561069857600080fd5b810190808051906020019092919050505050600160009054906101000a900473ffffffffffffffffffffffffffffffffffffffff1673ffffffffffffffffffffffffffffffffffffffff1663a0712d68836040518263ffffffff1660e01b815260040180828152602001915050602060405180830381600087803b15801561071f57600080fd5b505af1158015610733573d6000803e3d6000fd5b505050506040513d602081101561074957600080fd5b81019080805190602001909291905050505060006064604684028161076a57fe5b049050600160009054906101000a900473ffffffffffffffffffffffffffffffffffffffff1673ffffffffffffffffffffffffffffffffffffffff1663c5ebeaec826040518263ffffffff1660e01b815260040180828152602001915050602060405180830381600087803b1580156107e257600080fd5b505af11580156107f6573d6000803e3d6000fd5b505050506040513d602081101561080c57600080fd5b8101908080519060200190929190505050508091505091905056fea26469706673582212201a78b921c648a5757aaefc55cf56109ece018f2fe922edef8b2ea482e06c7ec364736f6c63430007030033",
  "immutableReferences": {},
  "source": "pragma solidity ^0.7.3;\n\nimport './IERC20.sol';\nimport './ComptrollerInterface.sol';\nimport './JCoinInterface.sol';\n\ncontract YieldFarmer {\n  ComptrollerInterface public comptroller;\n  JCoinInterface public cDai;\n  IERC20 public dai;\n  uint borrowFactor = 70;\n\n  constructor(\n    address comptrollerAddress,\n    address cDaiAddress,\n    address daiAddress\n  ) {\n    comptroller = ComptrollerInterface(comptrollerAddress);\n    cDai = JCoinInterface(cDaiAddress);\n    dai = IERC20(daiAddress);\n    address[] memory jCoins = new address[](1);\n    jCoins[0] = cDaiAddress; \n    comptroller.enterMarkets(jCoins);\n  }\n\n  function openPosition(uint initialAmount) external {\n    uint nextCollateralAmount = initialAmount;\n    for(uint i = 0; i < 5; i++) {\n      nextCollateralAmount = _supplyAndBorrow(nextCollateralAmount);\n    }\n  }\n\n  function _supplyAndBorrow(uint collateralAmount) internal returns(uint) {\n    dai.approve(address(cDai), collateralAmount);\n    cDai.mint(collateralAmount);\n    uint borrowAmount = (collateralAmount * 70) / 100;\n    cDai.borrow(borrowAmount);\n    return borrowAmount;\n  }\n\n  function closePosition() external {\n    uint balanceBorrow = cDai.borrowBalanceCurrent(address(this));\n    dai.approve(address(cDai), balanceBorrow);\n    cDai.repayBorrow(balanceBorrow);\n    uint balancecDai = cDai.balanceOf(address(this));\n    cDai.redeem(balancecDai);\n  }\n}",
  "sourcePath": "/Users/antenhetena/Documents/JayField/jayfieldnet0.1/contracts/YieldFarmer.sol",
  "compiler": {
    "name": "solc",
    "version": "0.7.3+commit.9bfce1f6.Emscripten.clang"
  },
  "schemaVersion": "3.3.3",
  "updatedAt": "2021-01-06T21:43:05.831Z",
  "devdoc": {
    "kind": "dev",
    "methods": {},
    "version": 1
  },
  "userdoc": {
    "kind": "user",
    "methods": {},
    "version": 1
  }
}